{
  "contractName": "BillingSystem",
  "abi": [
    {
      "inputs": [],
      "stateMutability": "nonpayable",
      "type": "constructor"
    },
    {
      "inputs": [
        {
          "internalType": "uint256",
          "name": "",
          "type": "uint256"
        }
      ],
      "name": "allConsumerAddress",
      "outputs": [
        {
          "internalType": "address",
          "name": "",
          "type": "address"
        }
      ],
      "stateMutability": "view",
      "type": "function",
      "constant": true
    },
    {
      "inputs": [],
      "name": "owner",
      "outputs": [
        {
          "internalType": "address",
          "name": "",
          "type": "address"
        }
      ],
      "stateMutability": "view",
      "type": "function",
      "constant": true
    },
    {
      "inputs": [
        {
          "internalType": "string[]",
          "name": "consumerInformation",
          "type": "string[]"
        }
      ],
      "name": "register",
      "outputs": [],
      "stateMutability": "payable",
      "type": "function",
      "payable": true
    },
    {
      "inputs": [],
      "name": "purchaseCoffee",
      "outputs": [],
      "stateMutability": "payable",
      "type": "function",
      "payable": true
    },
    {
      "inputs": [
        {
          "internalType": "address",
          "name": "consumerAddr",
          "type": "address"
        }
      ],
      "name": "addPurchaseDate",
      "outputs": [],
      "stateMutability": "nonpayable",
      "type": "function"
    },
    {
      "inputs": [
        {
          "internalType": "address",
          "name": "consumerAddr",
          "type": "address"
        }
      ],
      "name": "addAmountOfPurchasedCoffees",
      "outputs": [],
      "stateMutability": "nonpayable",
      "type": "function"
    },
    {
      "inputs": [],
      "name": "getAmountOfPurchasedCoffees",
      "outputs": [
        {
          "internalType": "uint256",
          "name": "",
          "type": "uint256"
        }
      ],
      "stateMutability": "view",
      "type": "function",
      "constant": true
    },
    {
      "inputs": [
        {
          "internalType": "address",
          "name": "consumerAddr",
          "type": "address"
        }
      ],
      "name": "getConsumerName",
      "outputs": [
        {
          "internalType": "string",
          "name": "",
          "type": "string"
        },
        {
          "internalType": "string",
          "name": "",
          "type": "string"
        }
      ],
      "stateMutability": "view",
      "type": "function",
      "constant": true
    },
    {
      "inputs": [
        {
          "internalType": "address",
          "name": "consumerAddr",
          "type": "address"
        }
      ],
      "name": "getConsumerExists",
      "outputs": [
        {
          "internalType": "bool",
          "name": "",
          "type": "bool"
        }
      ],
      "stateMutability": "view",
      "type": "function",
      "constant": true
    },
    {
      "inputs": [
        {
          "internalType": "address",
          "name": "consumerAddr",
          "type": "address"
        },
        {
          "internalType": "uint256",
          "name": "a",
          "type": "uint256"
        }
      ],
      "name": "punishment",
      "outputs": [],
      "stateMutability": "nonpayable",
      "type": "function"
    },
    {
      "inputs": [
        {
          "internalType": "address",
          "name": "consumerAddr",
          "type": "address"
        }
      ],
      "name": "getAccountCreateTime",
      "outputs": [
        {
          "internalType": "uint256",
          "name": "",
          "type": "uint256"
        }
      ],
      "stateMutability": "view",
      "type": "function",
      "constant": true
    },
    {
      "inputs": [
        {
          "internalType": "address",
          "name": "consumerAddr",
          "type": "address"
        }
      ],
      "name": "getBalanceOf",
      "outputs": [
        {
          "internalType": "uint256",
          "name": "",
          "type": "uint256"
        }
      ],
      "stateMutability": "view",
      "type": "function",
      "constant": true
    },
    {
      "inputs": [],
      "name": "deposit",
      "outputs": [],
      "stateMutability": "payable",
      "type": "function",
      "payable": true
    },
    {
      "inputs": [
        {
          "internalType": "address",
          "name": "consumerAddr",
          "type": "address"
        }
      ],
      "name": "hasEnoughCoffeeCoins",
      "outputs": [
        {
          "internalType": "bool",
          "name": "",
          "type": "bool"
        }
      ],
      "stateMutability": "view",
      "type": "function",
      "constant": true
    }
  ],
  "bytecode": "0x608060405234801561001057600080fd5b5033600160006101000a81548173ffffffffffffffffffffffffffffffffffffffff021916908373ffffffffffffffffffffffffffffffffffffffff160217905550611444806100616000396000f3fe6080604052600436106100dd5760003560e01c80639b96eece1161007f578063dfa5a25d11610059578063dfa5a25d146102b9578063e7bdc407146102c3578063fc97117814610300578063ff44b0ba14610329576100dd565b80639b96eece14610247578063d0e30db014610284578063d77962711461028e576100dd565b80634ad1630e116100bb5780634ad1630e1461017857806385b0fc6a146101b55780638da5cb5b146101de57806393ef75ce14610209576100dd565b8063123d51a1146100e257806317d551811461011f5780632ae64bb71461015c575b600080fd5b3480156100ee57600080fd5b5061010960048036038101906101049190610e5f565b610352565b6040516101169190610fe6565b60405180910390f35b34801561012b57600080fd5b5061014660048036038101906101419190610e5f565b6103aa565b6040516101539190610fe6565b60405180910390f35b61017660048036038101906101719190610ecc565b610410565b005b34801561018457600080fd5b5061019f600480360381019061019a9190610f15565b61069b565b6040516101ac9190610fcb565b60405180910390f35b3480156101c157600080fd5b506101dc60048036038101906101d79190610e8c565b6106da565b005b3480156101ea57600080fd5b506101f3610741565b6040516102009190610fcb565b60405180910390f35b34801561021557600080fd5b50610230600480360381019061022b9190610e5f565b610767565b60405161023e929190611001565b60405180910390f35b34801561025357600080fd5b5061026e60048036038101906102699190610e5f565b61090d565b60405161027b9190611058565b60405180910390f35b61028c610958565b005b34801561029a57600080fd5b506102a36109fe565b6040516102b09190611058565b60405180910390f35b6102c1610a47565b005b3480156102cf57600080fd5b506102ea60048036038101906102e59190610e5f565b610aa5565b6040516102f79190611058565b60405180910390f35b34801561030c57600080fd5b5061032760048036038101906103229190610e5f565b610af0565b005b34801561033557600080fd5b50610350600480360381019061034b9190610e5f565b610b5b565b005b60008060008373ffffffffffffffffffffffffffffffffffffffff1673ffffffffffffffffffffffffffffffffffffffff16815260200190815260200160002060040160009054906101000a900460ff169050919050565b60006103b582610352565b156104065760966000808473ffffffffffffffffffffffffffffffffffffffff1673ffffffffffffffffffffffffffffffffffffffff1681526020019081526020016000206007015411905061040b565b600090505b919050565b6000816000815181106104265761042561132f565b5b602002602001015190506000826001815181106104465761044561132f565b5b602002602001015190506000836002815181106104665761046561132f565b5b60200260200101519050610478610bb5565b33816000019073ffffffffffffffffffffffffffffffffffffffff16908173ffffffffffffffffffffffffffffffffffffffff16815250508381602001819052508281604001819052508181606001819052506001816080019015159081151581525050428160c001818152505060008160a0018181525050806000803373ffffffffffffffffffffffffffffffffffffffff1673ffffffffffffffffffffffffffffffffffffffff16815260200190815260200160002060008201518160000160006101000a81548173ffffffffffffffffffffffffffffffffffffffff021916908373ffffffffffffffffffffffffffffffffffffffff1602179055506020820151816001019080519060200190610593929190610c19565b5060408201518160020190805190602001906105b0929190610c19565b5060608201518160030190805190602001906105cd929190610c19565b5060808201518160040160006101000a81548160ff02191690831515021790555060a0820151816005015560c0820151816006015560e08201518160070155610100820151816008019080519060200190610629929190610c9f565b50905050600281600001519080600181540180825580915050600190039060005260206000200160009091909190916101000a81548173ffffffffffffffffffffffffffffffffffffffff021916908373ffffffffffffffffffffffffffffffffffffffff1602179055505050505050565b600281815481106106ab57600080fd5b906000526020600020016000915054906101000a900473ffffffffffffffffffffffffffffffffffffffff1681565b600081141561073d5760326000808473ffffffffffffffffffffffffffffffffffffffff1673ffffffffffffffffffffffffffffffffffffffff16815260200190815260200160002060070160008282546107359190611167565b925050819055505b5050565b600160009054906101000a900473ffffffffffffffffffffffffffffffffffffffff1681565b6060806000808473ffffffffffffffffffffffffffffffffffffffff1673ffffffffffffffffffffffffffffffffffffffff1681526020019081526020016000206001016000808573ffffffffffffffffffffffffffffffffffffffff1673ffffffffffffffffffffffffffffffffffffffff1681526020019081526020016000206002018180546107f890611225565b80601f016020809104026020016040519081016040528092919081815260200182805461082490611225565b80156108715780601f1061084657610100808354040283529160200191610871565b820191906000526020600020905b81548152906001019060200180831161085457829003601f168201915b5050505050915080805461088490611225565b80601f01602080910402602001604051908101604052809291908181526020018280546108b090611225565b80156108fd5780601f106108d2576101008083540402835291602001916108fd565b820191906000526020600020905b8154815290600101906020018083116108e057829003601f168201915b5050505050905091509150915091565b60008060008373ffffffffffffffffffffffffffffffffffffffff1673ffffffffffffffffffffffffffffffffffffffff168152602001908152602001600020600701549050919050565b670de0b6b3a764000034146109a2576040517f08c379a000000000000000000000000000000000000000000000000000000000815260040161099990611038565b60405180910390fd5b6103e86000803373ffffffffffffffffffffffffffffffffffffffff1673ffffffffffffffffffffffffffffffffffffffff16815260200190815260200160002060070160008282546109f59190611111565b92505081905550565b60008060003373ffffffffffffffffffffffffffffffffffffffff1673ffffffffffffffffffffffffffffffffffffffff16815260200190815260200160002060050154905090565b670de0b6b3a76400003414610a91576040517f08c379a0000000000000000000000000000000000000000000000000000000008152600401610a8890611038565b60405180910390fd5b610a9a33610af0565b610aa333610b5b565b565b60008060008373ffffffffffffffffffffffffffffffffffffffff1673ffffffffffffffffffffffffffffffffffffffff168152602001908152602001600020600601549050919050565b6000808273ffffffffffffffffffffffffffffffffffffffff1673ffffffffffffffffffffffffffffffffffffffff16815260200190815260200160002060080142908060018154018082558091505060019003906000526020600020016000909190919091505550565b6000808273ffffffffffffffffffffffffffffffffffffffff1673ffffffffffffffffffffffffffffffffffffffff1681526020019081526020016000206005016000815480929190610bad90611288565b919050555050565b604051806101200160405280600073ffffffffffffffffffffffffffffffffffffffff168152602001606081526020016060815260200160608152602001600015158152602001600081526020016000815260200160008152602001606081525090565b828054610c2590611225565b90600052602060002090601f016020900481019282610c475760008555610c8e565b82601f10610c6057805160ff1916838001178555610c8e565b82800160010185558215610c8e579182015b82811115610c8d578251825591602001919060010190610c72565b5b509050610c9b9190610cec565b5090565b828054828255906000526020600020908101928215610cdb579160200282015b82811115610cda578251825591602001919060010190610cbf565b5b509050610ce89190610cec565b5090565b5b80821115610d05576000816000905550600101610ced565b5090565b6000610d1c610d1784611098565b611073565b90508083825260208201905082856020860282011115610d3f57610d3e611392565b5b60005b85811015610d8d57813567ffffffffffffffff811115610d6557610d6461138d565b5b808601610d728982610e1c565b85526020850194506020840193505050600181019050610d42565b5050509392505050565b6000610daa610da5846110c4565b611073565b905082815260208101848484011115610dc657610dc5611397565b5b610dd18482856111e3565b509392505050565b600081359050610de8816113e0565b92915050565b600082601f830112610e0357610e0261138d565b5b8135610e13848260208601610d09565b91505092915050565b600082601f830112610e3157610e3061138d565b5b8135610e41848260208601610d97565b91505092915050565b600081359050610e59816113f7565b92915050565b600060208284031215610e7557610e746113a1565b5b6000610e8384828501610dd9565b91505092915050565b60008060408385031215610ea357610ea26113a1565b5b6000610eb185828601610dd9565b9250506020610ec285828601610e4a565b9150509250929050565b600060208284031215610ee257610ee16113a1565b5b600082013567ffffffffffffffff811115610f0057610eff61139c565b5b610f0c84828501610dee565b91505092915050565b600060208284031215610f2b57610f2a6113a1565b5b6000610f3984828501610e4a565b91505092915050565b610f4b8161119b565b82525050565b610f5a816111ad565b82525050565b6000610f6b826110f5565b610f758185611100565b9350610f858185602086016111f2565b610f8e816113a6565b840191505092915050565b6000610fa6601283611100565b9150610fb1826113b7565b602082019050919050565b610fc5816111d9565b82525050565b6000602082019050610fe06000830184610f42565b92915050565b6000602082019050610ffb6000830184610f51565b92915050565b6000604082019050818103600083015261101b8185610f60565b9050818103602083015261102f8184610f60565b90509392505050565b6000602082019050818103600083015261105181610f99565b9050919050565b600060208201905061106d6000830184610fbc565b92915050565b600061107d61108e565b90506110898282611257565b919050565b6000604051905090565b600067ffffffffffffffff8211156110b3576110b261135e565b5b602082029050602081019050919050565b600067ffffffffffffffff8211156110df576110de61135e565b5b6110e8826113a6565b9050602081019050919050565b600081519050919050565b600082825260208201905092915050565b600061111c826111d9565b9150611127836111d9565b9250827fffffffffffffffffffffffffffffffffffffffffffffffffffffffffffffffff0382111561115c5761115b6112d1565b5b828201905092915050565b6000611172826111d9565b915061117d836111d9565b9250828210156111905761118f6112d1565b5b828203905092915050565b60006111a6826111b9565b9050919050565b60008115159050919050565b600073ffffffffffffffffffffffffffffffffffffffff82169050919050565b6000819050919050565b82818337600083830152505050565b60005b838110156112105780820151818401526020810190506111f5565b8381111561121f576000848401525b50505050565b6000600282049050600182168061123d57607f821691505b6020821081141561125157611250611300565b5b50919050565b611260826113a6565b810181811067ffffffffffffffff8211171561127f5761127e61135e565b5b80604052505050565b6000611293826111d9565b91507fffffffffffffffffffffffffffffffffffffffffffffffffffffffffffffffff8214156112c6576112c56112d1565b5b600182019050919050565b7f4e487b7100000000000000000000000000000000000000000000000000000000600052601160045260246000fd5b7f4e487b7100000000000000000000000000000000000000000000000000000000600052602260045260246000fd5b7f4e487b7100000000000000000000000000000000000000000000000000000000600052603260045260246000fd5b7f4e487b7100000000000000000000000000000000000000000000000000000000600052604160045260246000fd5b600080fd5b600080fd5b600080fd5b600080fd5b600080fd5b6000601f19601f8301169050919050565b7f4e65656420746f2073656e642031204554480000000000000000000000000000600082015250565b6113e98161119b565b81146113f457600080fd5b50565b611400816111d9565b811461140b57600080fd5b5056fea26469706673582212204b2387d2c5162d07f91bbe7264734c8fe1ccd613036b2aa9617a0b38531609f364736f6c63430008070033",
  "immutableReferences": {},
  "source": "// File: contracts/BillingSystem.sol\r\n\r\npragma solidity 0.8.7;\r\n\r\ncontract BillingSystem {\r\n    mapping(address => Consumer) private consumers;\r\n    address public owner;\r\n    address[] public allConsumerAddress;\r\n\r\n    struct Consumer {\r\n        address consumerAccountAddress;\r\n        string consumerFirstName;\r\n        string consumerLastName;\r\n        string email;\r\n        bool isConsumerExists;\r\n        uint256 coffeeQuantity;\r\n        uint256 createTime;\r\n        uint256 coffeeCoin;\r\n        uint256[] coffeePurchaseDates;\r\n    }\r\n\r\n    constructor() {\r\n        owner = msg.sender;\r\n    }\r\n\r\n    function register(string[] memory consumerInformation) public payable {\r\n        string memory firstName = consumerInformation[0];\r\n        string memory lastName = consumerInformation[1];\r\n        string memory email = consumerInformation[2];\r\n        Consumer memory consumer;\r\n        consumer.consumerAccountAddress = msg.sender;\r\n        consumer.consumerFirstName = firstName;\r\n        consumer.consumerLastName = lastName;\r\n        consumer.email = email;\r\n        consumer.isConsumerExists = true;\r\n        consumer.createTime = block.timestamp;\r\n        consumer.coffeeQuantity = 0;\r\n        consumers[msg.sender] = consumer;\r\n        allConsumerAddress.push(consumer.consumerAccountAddress);\r\n    }\r\n\r\n    // @dev only call this function when the coffee machine is in working order.\r\n    function purchaseCoffee() public payable {\r\n        require(msg.value == 1 ether, 'Need to send 1 ETH');\r\n        addPurchaseDate(msg.sender);\r\n        addAmountOfPurchasedCoffees(msg.sender);\r\n    }\r\n\r\n    function addPurchaseDate(address consumerAddr) public {\r\n        consumers[consumerAddr].coffeePurchaseDates.push(block.timestamp);\r\n    }\r\n\r\n    function addAmountOfPurchasedCoffees(address consumerAddr) public {\r\n        consumers[consumerAddr].coffeeQuantity++;\r\n    }\r\n\r\n    function getAmountOfPurchasedCoffees() public view returns (uint256) {\r\n        return consumers[msg.sender].coffeeQuantity;\r\n    }\r\n\r\n    function getConsumerName(address consumerAddr) public view returns (string memory, string memory) {\r\n        return (\r\n            consumers[consumerAddr].consumerFirstName,\r\n            consumers[consumerAddr].consumerLastName\r\n        );\r\n    }\r\n\r\n    function getConsumerExists(address consumerAddr) public view returns (bool) {\r\n        return consumers[consumerAddr].isConsumerExists;\r\n    }\r\n\r\n    function punishment(address consumerAddr, uint256 a) public {\r\n        if (a == 0) {\r\n            consumers[consumerAddr].coffeeCoin -= 50;\r\n        }\r\n    }\r\n\r\n    // this function hat not very much usefull for our project\r\n    function getAccountCreateTime(address consumerAddr) public view returns (uint256) {\r\n        return consumers[consumerAddr].createTime;\r\n    }\r\n\r\n    function getBalanceOf(address consumerAddr) public view returns (uint256) {\r\n        return consumers[consumerAddr].coffeeCoin;\r\n    }\r\n\r\n    /// @dev call to deosit money. The user needs to deposit money before he can buy coffee\r\n    function deposit() public payable {\r\n        // Send Ether from msg.sender to owner\r\n        require(msg.value == 1 ether, 'Need to send 1 ETH');\r\n        // Convert amount of Ether to CoffeCoin and add the amount to consumer.coffeCoin\r\n        // conversion-rate is 1 [Ether] : 1000 [CoffeCoins]\r\n\r\n        consumers[msg.sender].coffeeCoin += 1000;\r\n    }\r\n\r\n    /// @notice returns true, if user has enough deposit to buy at least one coffeeCoin.\r\n    /// @notice returns false, if user does not have enough deposit to buy a coffee.\r\n    ///\r\n    /// @dev this should be called everytime the user wants to buy a coffee. The user needs to have\r\n    ///     at least 150 CoffeeCoins, 100 for the coffee itself, and 50 as safety deposit,\r\n    ///     that would be charged additionally in case the user does not clean the coffee machine.\r\n\r\n    function hasEnoughCoffeeCoins(address consumerAddr) public view returns (bool) {\r\n        if (getConsumerExists(consumerAddr)) {\r\n            return consumers[consumerAddr].coffeeCoin > 150;\r\n        } else {\r\n            return false;\r\n        }\r\n    }\r\n}\r\n",
  "sourcePath": "C:\\Users\\mtech\\Dokumente\\HackathonWBK2021\\CoffeeMachine\\Frontend\\my-app\\contracts\\BillingSystem.sol",
  "compiler": {
    "name": "solc",
    "version": "0.8.7+commit.e28d00a7.Emscripten.clang"
  },
  "schemaVersion": "3.4.3",
  "updatedAt": "2021-11-29T17:38:10.681Z",
  "networkType": "ethereum",
  "devdoc": {
    "kind": "dev",
    "methods": {
      "deposit()": {
        "details": "call to deosit money. The user needs to deposit money before he can buy coffee"
      },
      "hasEnoughCoffeeCoins(address)": {
        "details": "this should be called everytime the user wants to buy a coffee. The user needs to have     at least 150 CoffeeCoins, 100 for the coffee itself, and 50 as safety deposit,     that would be charged additionally in case the user does not clean the coffee machine."
      }
    },
    "version": 1
  },
  "userdoc": {
    "kind": "user",
    "methods": {
      "hasEnoughCoffeeCoins(address)": {
        "notice": "returns true, if user has enough deposit to buy at least one coffeeCoin.returns false, if user does not have enough deposit to buy a coffee."
      }
    },
    "version": 1
  }
}